:0300000002004CAF
:100008000000E2FBEAF2802C0000E0FBEAF080242A
:10001800E6B50202EBF62200E2B50202EBF222009C
:10002800E0B50202EBF02230F6E0A88220F5D3EA30
:10003800C6F582228B822230F6E6A88220F5D98086
:01004800CFE8
:0E00A500750A00750B00E4F508F50902004924
:030049000202664A
:1000B3007E2C7F01001EBEFF011FEE4F70F6225300
:1000C300B3FE43B40153B3FB43B40443B38053B40B
:1000D3007F43B10153B2FE43B10853B2F743F60174
:1000E300C290C2922243E10153E87F2253E8F08594
:1000F300E8E853E87F43E840E5E830E7FBAEC3E4D4
:10010300CEC4CE6ECE54F0CE6EFFACC253040F7D80
:1001130000EE4204EF42058C828D83227E007F0035
:100123007D10C007C006C0051200EFAB82AC83D0C0
:1001330005D006D007EB2EFEEC3FFFDDE5EFC4CE86
:10014300C4540F6ECE540FCE6ECEFF8E088F09228D
:100153002080047582012275820022208304758227
:10016300002275820122AE08AF09C374109EE49F7A
:1001730040047582012275820022AE08AF09C3EEE6
:100183009419EF9400400C74C29E74019F4004754F
:1001930082012275820022AE08AF09C3EE94C3EF39
:1001A3009401400C74CC9E74049F40047582012218
:1001B30075820022AE08AF09C3EE94CDEF940440DC
:1001C300047582012275820022120153AF82C00797
:1001D3001201B7E582D0076003C29022C007120163
:1001E30069E582D0076003C29022C00712017DE552
:1001F30082D0076009EF6003C29022D29022C00729
:1002030012019AE582D0076009EF6003D29022C2FF
:100213009022C2902212015EE5827007F50BF50A67
:10022300C292221201B7E582602074B0250B40040C
:10023300050B800F750B00E50A7005750A01800335
:10024300750A00E50A24FF929222120169E5826091
:1002530009750B00750A00D29222750B00750A000E
:10026300C292221200C21200E8C290C29212011F6F
:0B0273001201CC1202181200B380F23E
:06007B00E478FFF6D8FD59
:100059007900E94400601B7A00900282780175A05A
:1000690000E493F2A308B8000205A0D9F4DAF27506
:02007900A0FFE6
:100081007800E84400600A790175A000E4F309D81A
:10009100FC7800E84400600C7900900001E4F0A3D2
:0400A100D8FCD9FAB4
:0D004C0075810B12027EE5826003020049FF
:04027E007582002263
:00000001FF
